:030000000204886F
:0C048800787FE4F6D8FD75814A0204CFAD
:10065800C1020146000147000249001A02437FFF18
:0D066800880000AAAAAAAAAAAAAA01450011
:1005F20075080A750901D2AF7F017E00120587C214
:1006020094D2937F021209F28F481209A9E548D3C6
:1006120094624005E4F54880020548AD487F021225
:100622000A69120ADC120AB1120BA1120514300275
:10063200FAC202E509D394004008D509EE120A1461
:1006420080E91203F60508E508C3940A40DDE4F5E3
:060652000812036180D5CF
:1009A900900B37E493F52DE54875F00A84E5F0904E
:1009B9000B2793F52EE54875F00A8475F00A84E54E
:0509C900F093F52F2260
:100361007B007A00790A1208B3120AB1E50BAE0AD2
:100371007804CEA2E713CE13D8F8F50D8E0C750EC6
:1003810000E50B540FF50F7B007A00790C120A82FD
:10039100E544650B7004E543650A6058AE0CAF0D8A
:1003A1007C007D0A12008874272FF582740B3EF5BC
:1003B10083E493F52CAE0CAF0D7C007D0A1200880E
:1003C10074272DF582740B3CF583E493547FF52B50
:1003D100AE0EAF0F7C007D0A1200767D10120088F0
:1003E10074272FF582740B3EF583E493F52A850A71
:0403F10043850B44F1
:0103F50022E5
:100A82001200BEC3954AE5496480F8E5F064809897
:080A92004003020BA1D29622E1
:10081900EBC4540FFED39409EE50062430F5128030
:10082900042437F512EB540FFED39409EE50062435
:1008390030F51380042437F513E4F514FB7A0079B5
:040849001202090B83
:1003F6007B007A00790A1206B57801E2650B700473
:1004060018E2650A6012AB0BE4FD7F011208197849
:1004160000E50AF208E50BF27802E2650C600EAB25
:100426000C7D01E4FF1208197802E50CF27803E26C
:10043600650D600EAB0D7D017F031208197803E58B
:100446000DF27804E2650E600EAB0E7D017F06129A
:1004560008197804E50EF27805E2650F600EAB0F19
:100466007D017F091208197805E50FF27806E26525
:1004760010600EAB107D017F0C1208197806E5108E
:01048600F283
:010487002252
:10058700E4FCFDFB7A10790EF8120108E47BE87AA7
:1005970003F9F812075E8F0D8E0C8D0B8C0AC3E4DE
:1005A700950DF50DE4950CF50C7401950BF50BE421
:1005B700950AF50AE50D2421F50DE4350CF50CE453
:1005C700350BF50BE4350AF50AAF0DAE0CAD0BFC98
:1005D70078081201578F46850D475389F0438901E3
:0A05E70085468C85478AD2A9D28C84
:0105F10022E7
:03000B0002070CDD
:10070C00C0E0C0F0C083C082C0D075D000C000C0B3
:0D071C0001C002C003C004C005C006C00734
:1007290085468C85478A120B8A1209CE0545E5450F
:0A073900C394644005754500D20228
:10074300D007D006D005D004D003D002D001D0000A
:0B075300D0D0D082D083D0F0D0E032B4
:100B03007580FFC290D291D295AF80C295EF20E756
:010B1300F6EB
:010B140022BE
:100B5A00AE07120B03C290C2918E80D295C2952223
:100B6A00AE07120B03D290C2918E80D295C2952203
:100B1500ED7004AC078004EF2440FCEC4480FF0238
:020B25000B5A69
:10090B008B168A178918120B15AB16AA17A9181272
:10091B00000E60130518E5187002051714F9120084
:08092B000EFF120B6A80E222AC
:100ADC007F38120B5A7F0C120B5A7F06120B5A7F5F
:040AEC0001020B5A9E
:100B2700C0F9A4B0999282F880908883C6A1868E76
:010B3700FFBE
:060675000131000121002B
:1009CE002094207580FFE59054F04521F590742217
:1009DE002521F8E6F580E521C3940E50030521226A
:0309EE00E4F5210C
:0109F10022E3
:040BA1007531502238
:0C0B8A00E5316005B296153122D29622AA
:100B7A00313233263435362537383928301B0D279C
:10067B0090180101010101010101010101010101B9
:10068B0001019008010101010101010101010101B9
:10069B00010101010132001033FFFFFFFFFFFFFFDC
:0906AB00FFFFFFFFFFFFFFFFFF4F
:10051400E4F50AE4F50BE50A25E025E02418250BAB
:10052400F8E2FFE50A25E025E02408250BF8E2FEC1
:100534006F603DEE6020E50A25E025E0247AF5822F
:10054400E4340BF583E582250BF582E43583F583EA
:10055400E493FF120000E50A25E025E02418250BAA
:10056400F8E2FFE50A25E025E02408250BF8EFF280
:10057400050BE50BC39404409D050AE50AC39404E6
:020584004091A4
:010586002252
:10028D00E53225E025E02433F8E625E0FFA2A4E4DD
:10029D00334FFFE53225E025E02433F8A607E5329C
:1002AD0025E025E02434F8E625E0FFA2A5E4334F50
:1002BD00FFE53225E025E02434F8A607E53225E0F8
:1002CD0025E02435F8E625E0FFA2A6E4334FFFE54F
:1002DD003225E025E02435F8A607E53225E025E0B6
:1002ED002436F8E625E0FFA2A7E4334FFFE53225DB
:1002FD00E025E02436F8A607E4FFE53225E025E009
:10030D0024332FF8E6540FFE700EE53225E025E07C
:10031D0024182FF8E4F28010BE0F0DE53225E025EC
:10032D00E024182FF87401F20FBF04CE05325332BA
:10033D0003E53214600F146011146013240370135D
:10034D00D2A0C2A322D2A3C2A222D2A2C2A122D2E1
:03035D00A1C2A09A
:01036000227A
:0800030020140101123000037A
:100A4E007E01EE60135F6004D2B48002C2B4D2B5F0
:0A0A5E00C2B5EE25E0FE80EAD2B436
:010A6800226B
:100A9A00E4FF7E01EE600F30B4024207D2B5C2B560
:060AAA00EE25E0FE80EEE7
:010AB0002223
:100AF000D297EF25E04480FF120A4EAF05120A4E4E
:030B0000C2972277
:100B3800D297EF25E04481FF120A4E120A9AC29713
:010B4800228A
:060933008B128A138914E7
:10093900D2977FBE120A4EE4FDAB12AA13A9148DF9
:1009490082758300120027FF120A4E0DBD08EAC204
:010959009706
:01095A00227A
:06095B008B1D8A1E891F9E
:10096100D2977FBF120A4EE4FD120A9AAB1DAA1E4E
:10097100A91F8D82758300EF1200540DBD08EAC2D4
:0109810097DE
:010982002252
:0606B5008B128A13891468
:1006BB007B007A00791512095BE4251BFFE43420DB
:1006CB00AB12AA13A9148FF01200E9AB12AA13A94B
:1006DB0014900002E519120054900003E518120063
:1006EB0054900004E517120054900005E516120013
:1006FB0054900006E515120054900007E51A02000D
:01070B005499
:1007A200E4F5111200BEF510900007120027F50FB4
:1007B200900002120027F50E900003120027F50D9B
:1007C200900004120027F50C900005120027F50B8B
:1007D200900006120027F50A7B007A00790A0209C6
:0107E20033E3
:100A1400C297C2B5E4FF120B38EF30E710E4FD7F54
:0D0A240007120AF07BFF7A0079031207A287
:010A310022A2
:0B0B96000000000000000000DFF6225D
:100A3200C2AFC2B27F32120B96D2B27F06120B96AF
:0B0A4200A2B2920130B2FDD2AFA201BF
:010A4D002286
:02098300AE07BD
:10098500C2AF7D01ED601AC2B200005E7004C2B252
:100995008002D2B27F06120B96D2B2ED25E0FD8021
:0309A500E3D2AFEB
:0109A800222C
:1008E100C2AF7D01ED601EC2B20000D2B200002095
:1008F100B205F452068003ED42067F06120B96ED17
:0909010025E0FD80DFD2AFAF0656
:01090A0022CA
:100AB100120A32920020000A7FCC1209837F44126D
:050AC1000983A200B34F
:010AC600220D
:1008B300120A3292002000227FCC1209837FBE12DB
:1008C30009831208E1AC071208E1EFFEAD047C00D6
:0D08D300E42DFFEC3E8FF01200E9A200B30F
:0108E00022F5
:100B4900D2B6D2B700000000C2B600000000C2B79A
:010B59002279
:100AC700C2B7C2B600000000D2B700000000D2B61D
:050AD7000000000022F8
:1007E3007E80EE601B5F7004C2B68002D2B600004A
:1007F3000000D2B700000000C2B7EEC313FE80E2D0
:10080300D2B600000000D2B7A2B6920000000000EA
:05081300C2B7A200B312
:0108180022BD
:10084D00D2B67E80EE601D00000000D2B720B60546
:10085D00F452078003EE420700000000C2B7EEC35A
:10086D0013FE80E0D2B600000000D2B700000000F9
:02087D00C2B700
:01087F002256
:10088000D2B67E80EE601D00000000D2B720B60513
:10089000F452078003EE420700000000C2B7EEC327
:1008A00013FE80E0C2B600000000D2B700000000D6
:0208B000C2B7CD
:0108B2002223
:0209F2008F0A6A
:1009F400120B497FA01207E3AF0A1207E3120B4957
:0F0A04007FA11207E312084D8F0B120AC7AF0B29
:010A130022C0
:100A69008F0A8D0B120B497FA01207E3AF0A1207F9
:090A7900E3AF0B1207E3020AC708
:100494000205F2E493A3F8E493A34003F68001F287
:1004A40008DFF48029E493A3F85407240CC8C33369
:1004B400C4540F4420C8834004F456800146F6DF38
:1004C400E4800B0102040810204080900658E47E6A
:1004D400019360BCA3FF543F30E509541FFEE4932D
:1004E400A360010ECF54C025E060A840B8E493A3F4
:1004F400FAE493A3F8E493A3C8C582C8CAC583CA1F
:10050400F0A3C8C582C8CAC583CADFE9DEE780BED6
:0106B4000045
:10000E00BB010689828A83E0225002E722BBFE02F0
:09001E00E32289828A83E4932223
:10002700BB010CE58229F582E5833AF583E022508E
:1000370006E92582F8E622BBFE06E92582F8E222D8
:0D004700E58229F582E5833AF583E49322F2
:10005400F8BB010DE58229F582E5833AF583E8F0E2
:10006400225006E92582C8F622BBFE05E92582C88E
:02007400F22276
:10007600EF8DF0A4A8F0CF8CF0A428CE8DF0A42E9E
:02008600FE2258
:10008800C2D5EC30E709B2D5E4C39DFDE49CFCEE93
:1000980030E715B2D5E4C39FFFE49EFE12016AC3A0
:1000A800E49DFDE49CFC800312016A30D507C3E49B
:0600B8009FFFE49EFE2202
:1000BE00BB010A89828A83E0F5F0A3E0225006870D
:1000CE00F009E71922BBFE07E3F5F009E3192289CF
:0B00DE00828A83E493F5F07401932202
:1000E900BB010A89828A83F0E5F0A3F0225006F762
:0F00F90009A7F01922BBFE06F3E5F009F319225F
:10010800E88FF0A4CC8BF0A42CFCE98EF0A42CFC96
:100118008AF0EDA42CFCEA8EF0A4CDA8F08BF0A414
:100128002DCC3825F0FDE98FF0A42CCD35F0FCEB73
:100138008EF0A4FEA9F0EB8FF0A4CFC5F02ECD3938
:0F014800FEE43CFCEAA42DCE35F0FDE43CFC22A5
:10075E00C2D5E830E70FB2D5E4C39BFBE49AFAE4C6
:10076E0099F9E498F8EC30E717B2D5120794120114
:10077E00FBE4C39BFBE49AFAE499F9E498F880034E
:10078E001201FB30D50DE4C39FFFE49EFEE49DFDF8
:04079E00E49CFC22B9
:10015700E8600FECC313FCED13FDEE13FEEF13FF86
:03016700D8F122AA
:10016A00BC000BBE0029EF8DF084FFADF022E4CC79
:10017A00F875F008EF2FFFEE33FEEC33FCEE9DEC42
:10018A00984005FCEE9DFE0FD5F0E9E4CEFD22ED88
:10019A00F8F5F0EE8420D21CFEADF075F008EF2FD2
:1001AA00FFED33FD4007985006D5F0F222C398FDC3
:0501BA000FD5F0EA2260
:1001BF0075F008758200EF2FFFEE33FECD33CDCCF7
:1001CF0033CCC58233C5829BED9AEC99E58298407A
:1001DF000CF582EE9BFEED9AFDEC99FC0FD5F0D657
:1001EF00E4CEFBE4CDFAE4CCF9A88222B800C1B981
:1001FF000059BA002DEC8BF084CFCECDFCE5F0CBBF
:10020F00F97818EF2FFFEE33FEED33FDEC33FCEBF7
:10021F0033FB10D703994004EB99FB0FD8E5E4F9B2
:10022F00FA227818EF2FFFEE33FEED33FDEC33FC9F
:10023F00C933C910D7059BE99A4007EC9BFCE99A93
:10024F00F90FD8E0E4C9FAE4CCFB2275F010EF2FD8
:10025F00FFEE33FEED33FDCC33CCC833C810D707D8
:10026F009BEC9AE899400AED9BFDEC9AFCE899F813
:0E027F000FD5F0DAE4CDFBE4CCFAE4C8F922A6
:00000001FF
