:030000000204886F
:0C048800787FE4F6D8FD75814A0204CFAD
:10065800C1020146000147000249001A02437FFF18
:0C066800870000AAAAAAAAAAAA014500BD
:1005F20075080A750901D2AF7F017E00120587C214
:1006020094D2937F02120A2D8F481209C2E548D371
:1006120094624005E4F54880020548AD487F021225
:100622000AA11208CE120AE9120BC51205143002F1
:10063200FAC202E509D394004008D509EE120A86EF
:1006420080E91203F60508E508C3940A40DDE4F5E3
:060652000812036180D5CF
:1009C200900B5BE493F52DE54875F00A84E5F09011
:1009D2000B4B93F52EE54875F00A8475F00A84E511
:0509E200F093F52F2247
:100361007B007A00790A1208A0120AE9E50BAE0AAD
:100371007804CEA2E713CE13D8F8F50D8E0C750EC6
:1003810000E50B540FF50F7B007A00790C120ABAC5
:10039100E544650B7004E543650A6058AE0CAF0D8A
:1003A1007C007D0A120088744B2FF582740B3EF598
:1003B10083E493F52CAE0CAF0D7C007D0A1200880E
:1003C100744B2DF582740B3CF583E493547FF52B2C
:1003D100AE0EAF0F7C007D0A1200767D10120088F0
:1003E100744B2FF582740B3EF583E493F52A850A4D
:0403F10043850B44F1
:0103F50022E5
:100ABA001200BEC3954AE5496480F8E5F06480985F
:080ACA004003020BC5D2962285
:10080600EBC4540FFED39409EE50062430F5118044
:10081600042437F511EB540FFED39409EE50062449
:1008260030F51280042437F512E4F513FB7A0079CB
:04083600110209247E
:1003F6007B007A00790A1207067801E2650B700421
:1004060018E2650A6012AB0BE4FD7F03120806785A
:1004160000E50AF208E50BF27802E2650C600EAB25
:100426000C7D01E4FF1208067802E50CF27803E27F
:10043600650D600EAB0D7D017F031208067803E59E
:100446000DF27804E2650E600EAB0E7D017F081298
:1004560008067804E50EF27805E2650F600EAB0F2C
:100466007D017F0B1208067805E50FF27806E26536
:1004760010600EAB107D017F0E1208067806E5109F
:01048600F283
:010487002252
:10058700E4FCFDFB7A10790EF8120108E47BE87AA7
:1005970003F9F81207508F0D8E0C8D0B8C0AC3E4EC
:1005A700950DF50DE4950CF50C7401950BF50BE421
:1005B700950AF50AE50D2421F50DE4350CF50CE453
:1005C700350BF50BE4350AF50AAF0DAE0CAD0BFC98
:1005D70078081201578F46850D475389F0438901E3
:0A05E70085468C85478AD2A9D28C84
:0105F10022E7
:03000B000206B436
:1006B400C0E0C0F0C083C082C0D075D000C000C00C
:0D06C40001C002C003C004C005C006C0078D
:1006D10085468C85478A120BAE1209E70545E5452B
:0A06E100C394644005754500D20281
:1006EB00D007D006D005D004D003D002D001D00063
:0B06FB00D0D0D082D083D0F0D0E0320D
:100A0B005F323020205F3138313033303032303488
:100A1B000020202D20202020203A3A3A3A3A3A3A28
:020A2B003A008F
:100B27007580FFC290D291D295AF80C295EF20E732
:010B3700F6C7
:010B3800229A
:100B7E00AE07120B27C290C2918E80D295C29522DB
:100B8E00AE07120B27D290C2918E80D295C29522BB
:100B3900ED7004AC078004EF2440FCEC4480FF0214
:020B49000B7E21
:100924008B158A168917120B39AB15AA16A917123B
:10093400000E60130517E5177002051614F912006E
:080944000EFF120B8E80E2226F
:1008CE007F38120B7E7F0C120B7E7F06120B7E7F03
:1008DE0001120B7E7BFF7A0A790BE4FDFF120924CD
:0C08EE007BFF7A0A791C0DE4FF0209244C
:100B4B00C0F9A4B0999282F880908883C6A1868E52
:010B5B00FF9A
:060674000131000121002C
:1009E7002094207580FFE59054F04521F5907422FE
:1009F7002521F8E6F580E521C3940E500305212251
:030A0700E4F521F2
:010A0A0022C9
:040BC5007531502214
:0C0BAE00E5316005B296153122D2962286
:100B9E00313233263435362537383928301B0D2778
:10067A0090170101010101010101010101010101BB
:10068A0001019007010101010101010101010101BB
:10069A00010101010132001033FFFFFFFFFFFFFFDD
:0906AA00FFFFFFFFFFFFFFFFFF50
:10051400E4F50AE4F50BE50A25E025E02417250BAC
:10052400F8E2FFE50A25E025E02407250BF8E2FEC2
:100534006F603DEE6020E50A25E025E0249EF5820B
:10054400E4340BF583E582250BF582E43583F583EA
:10055400E493FF120000E50A25E025E02417250BAB
:10056400F8E2FFE50A25E025E02407250BF8EFF281
:10057400050BE50BC39404409D050AE50AC39404E6
:020584004091A4
:010586002252
:10028D00E53225E025E02433F8E625E0FFA2A4E4DD
:10029D00334FFFE53225E025E02433F8A607E5329C
:1002AD0025E025E02434F8E625E0FFA2A5E4334F50
:1002BD00FFE53225E025E02434F8A607E53225E0F8
:1002CD0025E02435F8E625E0FFA2A6E4334FFFE54F
:1002DD003225E025E02435F8A607E53225E025E0B6
:1002ED002436F8E625E0FFA2A7E4334FFFE53225DB
:1002FD00E025E02436F8A607E4FFE53225E025E009
:10030D0024332FF8E6540FFE700EE53225E025E07C
:10031D0024172FF8E4F28010BE0F0DE53225E025ED
:10032D00E024172FF87401F20FBF04CE05325332BB
:10033D0003E53214600F146011146013240370135D
:10034D00D2A0C2A322D2A3C2A222D2A2C2A122D2E1
:03035D00A1C2A09A
:01036000227A
:0700030020201130235559A4
:100A6B007E01EE60135F6004D2B48002C2B4D2B5D3
:0A0A7B00C2B5EE25E0FE80EAD2B419
:010A8500224E
:100AD200E4FF7E01EE600F30B4024207D2B5C2B528
:060AE200EE25E0FE80EEAF
:010AE80022EB
:100B1400D297EF25E04480FF120A6BAF05120A6BEF
:030B2400C2972253
:100B5C00D297EF25E04481FF120A6B120AD2C2979A
:010B6C002266
:06094C008B138A148915CB
:10095200D2977FBE120A6BE4FDAB13AA14A9158DC0
:1009620082758300120027FF120A6B0DBD08EAC2CE
:0109720097ED
:010973002261
:060974008B1C8A1D891E88
:10097A00D2977FBF120A6BE4FD120AD2AB1CAA1DE2
:10098A00A91E8D82758300EF1200540DBD08EAC2BC
:01099A0097C5
:01099B002239
:060706008B118A12891319
:10070C007B007A007914120974AB11AA12A913E4B4
:10071C00851AF01200E9AB11AA12A913900002E598
:10072C0018120054900003E517120054900004E5D1
:10073C0016120054900005E515120054900006E5C1
:04074C00140200543F
:10079400E4F5121200BEF511E4F510900002120007
:1007A40027F50F900003120027F50E9000041200A5
:1007B40027F50D900005120027F50C900006120095
:0C07C40027F50B7B007A00790B02094C32
:100A8600C297C2B5E4FF120B5C8F0AE4FD7F071222
:0B0A96000B147BFF7A00790302079429
:0B0BBA000000000000000000DFF62239
:100A4F00C2AFC2B27F32120BBAD2B27F06120BBA4A
:0B0A5F00A2B2920130B2FDD2AFA201A2
:010A6A002269
:02099C00AE07A4
:10099E00C2AF7D01ED601AC2B200005E7004C2B239
:1009AE008002D2B27F06120BBAD2B2ED25E0FD80E4
:0309BE00E3D2AFD2
:0109C1002213
:1008FA00C2AF7D01ED601EC2B20000D2B20000207C
:10090A00B205F452068003ED42067F06120BBAEDD9
:09091A0025E0FD80DFD2AFAF063D
:0109230022B1
:100AE900120A4F920020000A7FCC12099C7F4412FF
:050AF900099CA200B3FE
:010AFE0022D5
:1008A000120A4F92002000227FCC12099C7FBE12B8
:1008B000099C1208FAAC071208FAEFFEAD047C009E
:0D08C000E42DFFEC3E8FF01200E9A200B322
:0108CD002208
:100B6D00D2B6D2B700000000C2B600000000C2B776
:010B7D002255
:100AFF00C2B7C2B600000000D2B700000000D2B6E5
:050B0F000000000022BF
:1007D0007E80EE601B5F7004C2B68002D2B600005D
:1007E0000000D2B700000000C2B7EEC313FE80E2E3
:1007F000D2B600000000D2B7A2B6920000000000FE
:05080000C2B7A200B325
:0108050022D0
:10083A00D2B67E80EE601D00000000D2B720B60559
:10084A00F452078003EE420700000000C2B7EEC36D
:10085A0013FE80E0D2B600000000D2B7000000000C
:02086A00C2B713
:01086C002269
:10086D00D2B67E80EE601D00000000D2B720B60526
:10087D00F452078003EE420700000000C2B7EEC33A
:10088D0013FE80E0C2B600000000D2B700000000E9
:02089D00C2B7E0
:01089F002236
:020A2D008F0A2E
:100A2F00120B6D7FA01207D0AF0A1207D0120B6DF9
:0F0A3F007FA11207D012083A8F0B120AFFAF0BDC
:010A4E002285
:100AA1008F0A8D0B120B6D7FA01207D0AF0A1207B0
:090AB100D0AF0B1207D0020AFFBE
:100494000205F2E493A3F8E493A34003F68001F287
:1004A40008DFF48029E493A3F85407240CC8C33369
:1004B400C4540F4420C8834004F456800146F6DF38
:1004C400E4800B0102040810204080900658E47E6A
:1004D400019360BCA3FF543F30E509541FFEE4932D
:1004E400A360010ECF54C025E060A840B8E493A3F4
:1004F400FAE493A3F8E493A3C8C582C8CAC583CA1F
:10050400F0A3C8C582C8CAC583CADFE9DEE780BED6
:0106B3000046
:10000E00BB010689828A83E0225002E722BBFE02F0
:09001E00E32289828A83E4932223
:10002700BB010CE58229F582E5833AF583E022508E
:1000370006E92582F8E622BBFE06E92582F8E222D8
:0D004700E58229F582E5833AF583E49322F2
:10005400F8BB010DE58229F582E5833AF583E8F0E2
:10006400225006E92582C8F622BBFE05E92582C88E
:02007400F22276
:10007600EF8DF0A4A8F0CF8CF0A428CE8DF0A42E9E
:02008600FE2258
:10008800C2D5EC30E709B2D5E4C39DFDE49CFCEE93
:1000980030E715B2D5E4C39FFFE49EFE12016AC3A0
:1000A800E49DFDE49CFC800312016A30D507C3E49B
:0600B8009FFFE49EFE2202
:1000BE00BB010A89828A83E0F5F0A3E0225006870D
:1000CE00F009E71922BBFE07E3F5F009E3192289CF
:0B00DE00828A83E493F5F07401932202
:1000E900BB010A89828A83F0E5F0A3F0225006F762
:0F00F90009A7F01922BBFE06F3E5F009F319225F
:10010800E88FF0A4CC8BF0A42CFCE98EF0A42CFC96
:100118008AF0EDA42CFCEA8EF0A4CDA8F08BF0A414
:100128002DCC3825F0FDE98FF0A42CCD35F0FCEB73
:100138008EF0A4FEA9F0EB8FF0A4CFC5F02ECD3938
:0F014800FEE43CFCEAA42DCE35F0FDE43CFC22A5
:10075000C2D5E830E70FB2D5E4C39BFBE49AFAE4D4
:1007600099F9E498F8EC30E717B2D5120786120130
:10077000FBE4C39BFBE49AFAE499F9E498F880035C
:100780001201FB30D50DE4C39FFFE49EFEE49DFD06
:04079000E49CFC22C7
:10015700E8600FECC313FCED13FDEE13FEEF13FF86
:03016700D8F122AA
:10016A00BC000BBE0029EF8DF084FFADF022E4CC79
:10017A00F875F008EF2FFFEE33FEEC33FCEE9DEC42
:10018A00984005FCEE9DFE0FD5F0E9E4CEFD22ED88
:10019A00F8F5F0EE8420D21CFEADF075F008EF2FD2
:1001AA00FFED33FD4007985006D5F0F222C398FDC3
:0501BA000FD5F0EA2260
:1001BF0075F008758200EF2FFFEE33FECD33CDCCF7
:1001CF0033CCC58233C5829BED9AEC99E58298407A
:1001DF000CF582EE9BFEED9AFDEC99FC0FD5F0D657
:1001EF00E4CEFBE4CDFAE4CCF9A88222B800C1B981
:1001FF000059BA002DEC8BF084CFCECDFCE5F0CBBF
:10020F00F97818EF2FFFEE33FEED33FDEC33FCEBF7
:10021F0033FB10D703994004EB99FB0FD8E5E4F9B2
:10022F00FA227818EF2FFFEE33FEED33FDEC33FC9F
:10023F00C933C910D7059BE99A4007EC9BFCE99A93
:10024F00F90FD8E0E4C9FAE4CCFB2275F010EF2FD8
:10025F00FFEE33FEED33FDCC33CCC833C810D707D8
:10026F009BEC9AE899400AED9BFDEC9AFCE899F813
:0E027F000FD5F0DAE4CDFBE4CCFAE4C8F922A6
:00000001FF
